56       Evolvus                                                                                                000000010000016022021                       NIRANJAN808817106321021600002n      INDB000011180010000013                        000000003                                                           
67                             Niranjan                                                SAL-Evolvus                      0000000050000                    100SBIN0016506611690072                          INDB0000111NIRANJAN80881710637001000001                    SAL               FDRL0111123331194943       
67                             Niranjan                                                SAL-Evolvus                      0000000030000                    003SBIN0016506611690072                          INDB0000111NIRANJAN80881710637001000002                    SAL               FDRL0111123331194943       
67                             Niranjan                                                SAL-Evolvus                      0000000020000                    398SBIN0016506611690072                          INDB0000111NIRANJAN80881710637001000003                    SAL               FDRL0111123331194943       
