56       evolvus                                                                                                000000240000007042021                       INDB0000000000199321040700008j      INDB000009880010000014                        000000002                                                           
67                             BAHIRA JAYRAM DATTU                                     evolvus                          0000001900000                       ABHY0065050081011100003834                    INDB0000098INDB00000000001993INDB5002104070088pjq          10                ABHY0000000000431211       
67                             APARNA AH                                               evolvus                          0000000500000                       FDRL000015980010000014                        INDB0000098INDB00000000001993INDB5002104070088pjr          10                INDBTRED002009900957       
